{
  "contractName": "Registry",
  "abi": [
    {
      "constant": true,
      "inputs": [
        {
          "name": "",
          "type": "address"
        }
      ],
      "name": "admins",
      "outputs": [
        {
          "name": "account",
          "type": "address"
        },
        {
          "name": "adminType",
          "type": "uint8"
        }
      ],
      "payable": false,
      "stateMutability": "view",
      "type": "function"
    },
    {
      "constant": true,
      "inputs": [
        {
          "name": "",
          "type": "bytes32"
        }
      ],
      "name": "registrations",
      "outputs": [
        {
          "name": "owner",
          "type": "string"
        },
        {
          "name": "subject",
          "type": "bytes32"
        },
        {
          "name": "meta",
          "type": "bytes32"
        }
      ],
      "payable": false,
      "stateMutability": "view",
      "type": "function"
    },
    {
      "inputs": [
        {
          "name": "initialFee",
          "type": "uint256"
        }
      ],
      "payable": false,
      "stateMutability": "nonpayable",
      "type": "constructor"
    },
    {
      "anonymous": false,
      "inputs": [
        {
          "indexed": false,
          "name": "owner",
          "type": "string"
        },
        {
          "indexed": false,
          "name": "subject",
          "type": "bytes32"
        }
      ],
      "name": "Registered",
      "type": "event"
    },
    {
      "anonymous": false,
      "inputs": [
        {
          "indexed": false,
          "name": "admin",
          "type": "address"
        }
      ],
      "name": "CreatedAdmin",
      "type": "event"
    },
    {
      "anonymous": false,
      "inputs": [
        {
          "indexed": false,
          "name": "message",
          "type": "string"
        }
      ],
      "name": "Error",
      "type": "event"
    },
    {
      "constant": true,
      "inputs": [],
      "name": "getFee",
      "outputs": [
        {
          "name": "",
          "type": "uint256"
        }
      ],
      "payable": false,
      "stateMutability": "view",
      "type": "function"
    },
    {
      "constant": false,
      "inputs": [
        {
          "name": "subject",
          "type": "bytes32"
        },
        {
          "name": "owner",
          "type": "string"
        }
      ],
      "name": "register",
      "outputs": [
        {
          "name": "",
          "type": "uint8"
        },
        {
          "name": "",
          "type": "bytes32"
        }
      ],
      "payable": true,
      "stateMutability": "payable",
      "type": "function"
    },
    {
      "constant": true,
      "inputs": [
        {
          "name": "subject",
          "type": "bytes32"
        }
      ],
      "name": "retrieve",
      "outputs": [
        {
          "name": "",
          "type": "uint8"
        },
        {
          "name": "",
          "type": "string"
        },
        {
          "name": "",
          "type": "bytes32"
        }
      ],
      "payable": false,
      "stateMutability": "view",
      "type": "function"
    },
    {
      "constant": true,
      "inputs": [
        {
          "name": "subject",
          "type": "bytes32"
        }
      ],
      "name": "getHash",
      "outputs": [
        {
          "name": "",
          "type": "bytes32"
        }
      ],
      "payable": false,
      "stateMutability": "pure",
      "type": "function"
    }
  ],
  "bytecode": "0x60606040526000600255341561001457600080fd5b604051602080610b6b833981016040528080519060200190919050508060028190555060408051908101604052803373ffffffffffffffffffffffffffffffffffffffff16815260200160008081111561006a57fe5b815250600160003373ffffffffffffffffffffffffffffffffffffffff1673ffffffffffffffffffffffffffffffffffffffff16815260200190815260200160002060008201518160000160006101000a81548173ffffffffffffffffffffffffffffffffffffffff021916908373ffffffffffffffffffffffffffffffffffffffff16021790555060208201518160000160146101000a81548160ff0219169083600081111561011757fe5b02179055509050507fa3535673a5d9f78a752310f0a6776c6b18e627974408e452936cb4fd8a70863033604051808273ffffffffffffffffffffffffffffffffffffffff1673ffffffffffffffffffffffffffffffffffffffff16815260200191505060405180910390a1506109d9806101926000396000f300606060405260043610610078576000357c0100000000000000000000000000000000000000000000000000000000900463ffffffff1680633cf5040a1461007d578063429b62e5146100c0578063ced72f871461014e578063cf2d31fb14610177578063d1ed74ad14610207578063da7c6a42146102cb575b600080fd5b341561008857600080fd5b6100a26004808035600019169060200190919050506103a6565b60405180826000191660001916815260200191505060405180910390f35b34156100cb57600080fd5b6100f7600480803573ffffffffffffffffffffffffffffffffffffffff169060200190919050506103cd565b604051808373ffffffffffffffffffffffffffffffffffffffff1673ffffffffffffffffffffffffffffffffffffffff16815260200182600081111561013957fe5b60ff1681526020019250505060405180910390f35b341561015957600080fd5b61016161041e565b6040518082815260200191505060405180910390f35b6101d460048080356000191690602001909190803590602001908201803590602001908080601f01602080910402602001604051908101604052809392919081815260200183838082843782019150505050505091905050610428565b604051808360018111156101e457fe5b60ff16815260200182600019166000191681526020019250505060405180910390f35b341561021257600080fd5b61022c60048080356000191690602001909190505061072b565b6040518084600181111561023c57fe5b60ff168152602001806020018360001916600019168152602001828103825284818151815260200191508051906020019080838360005b8381101561028e578082015181840152602081019050610273565b50505050905090810190601f1680156102bb5780820380516001836020036101000a031916815260200191505b5094505050505060405180910390f35b34156102d657600080fd5b6102f0600480803560001916906020019091905050610889565b6040518080602001846000191660001916815260200183600019166000191681526020018281038252858181546001816001161561010002031660029004815260200191508054600181600116156101000203166002900480156103955780601f1061036a57610100808354040283529160200191610395565b820191906000526020600020905b81548152906001019060200180831161037857829003601f168201915b505094505050505060405180910390f35b60008160405180826000191660001916815260200191505060405180910390209050919050565b60016020528060005260406000206000915090508060000160009054906101000a900473ffffffffffffffffffffffffffffffffffffffff16908060000160149054906101000a900460ff16905082565b6000600254905090565b60008060008460006104386108b2565b610441836103a6565b9150600080836000191660001916815260200190815260200160002060606040519081016040529081600082018054600181600116156101000203166002900480601f0160208091040260200160405190810160405280929190818152602001828054600181600116156101000203166002900480156105025780601f106104d757610100808354040283529160200191610502565b820191906000526020600020905b8154815290600101906020018083116104e557829003601f168201915b5050505050815260200160018201546000191660001916815260200160028201546000191660001916815250509050600060010281602001516000191614151561054b57600080fd5b3073ffffffffffffffffffffffffffffffffffffffff1663ced72f876000604051602001526040518163ffffffff167c0100000000000000000000000000000000000000000000000000000000028152600401602060405180830381600087803b15156105b757600080fd5b6102c65a03f115156105c857600080fd5b5050506040518051905034101515156105e057600080fd5b6105e9886103a6565b935060606040519081016040528088815260200185600019168152602001600060010260001916815250600080866000191660001916815260200190815260200160002060008201518160000190805190602001906106499291906108e0565b5060208201518160010190600019169055604082015181600201906000191690559050507fcde36335f30cfeeee36616be9814f4795f2a52bee52d1c6ecb4956419769e376878560405180806020018360001916600019168152602001828103825284818151815260200191508051906020019080838360005b838110156106de5780820151818401526020810190506106c3565b50505050905090810190601f16801561070b5780820380516001836020036101000a031916815260200191505b50935050505060405180910390a160008495509550505050509250929050565b6000610735610960565b6000806107406108b2565b610749866103a6565b9150600080836000191660001916815260200190815260200160002060606040519081016040529081600082018054600181600116156101000203166002900480601f01602080910402602001604051908101604052809291908181526020018280546001816001161561010002031660029004801561080a5780601f106107df5761010080835404028352916020019161080a565b820191906000526020600020905b8154815290600101906020018083116107ed57829003601f168201915b50505050508152602001600182015460001916600019168152602001600282015460001916600019168152505090506000816020015160001916141561086a57600182602060405190810160405280600081525090945094509450610880565b6000816000015182602001518191509450945094505b50509193909250565b600060205280600052604060002060009150905080600001908060010154908060020154905083565b6060604051908101604052806108c6610974565b815260200160008019168152602001600080191681525090565b828054600181600116156101000203166002900490600052602060002090601f016020900481019282601f1061092157805160ff191683800117855561094f565b8280016001018555821561094f579182015b8281111561094e578251825591602001919060010190610933565b5b50905061095c9190610988565b5090565b602060405190810160405280600081525090565b602060405190810160405280600081525090565b6109aa91905b808211156109a657600081600090555060010161098e565b5090565b905600a165627a7a72305820caefeb56db8ad69277b0d885cf47a28afbe52951984b0090af19468e39aaadc20029",
  "source": "pragma solidity ^0.4.15;\n\n\ncontract Registry {\n    event Registered(string owner, bytes32 subject);\n    event CreatedAdmin(address admin);\n    event Error(string message);\n\n    struct Registration {\n        string owner;\n        bytes32 subject;\n        bytes32 meta;\n    }\n\n    enum AdminType { System }\n\n    struct Admin {\n        address account;\n        AdminType adminType;\n    }\n\n    mapping(bytes32 => Registration) public registrations;\n    mapping(address => Admin) public admins;\n\n    uint _fee = 0;\n\n    function Registry(uint initialFee) public {\n        _fee = initialFee;\n        admins[msg.sender] = Admin({\n            account: msg.sender,\n            adminType: AdminType.System\n        });\n        CreatedAdmin(msg.sender);\n    }\n\n    function getFee() public view returns (uint) {\n        return _fee;\n    }\n\n    enum Response { Ok, Error }\n\n    function register(bytes32 subject, string owner) public payable notRegistered(subject) enoughFee returns (Response, bytes32) {\n        bytes32 hashed = getHash(subject);\n\n        registrations[hashed] = Registration({\n            owner: owner,\n            subject: hashed,\n            meta: 0\n        });\n\n        Registered(owner, hashed);\n        return (Response.Ok, hashed);\n    }\n\n    function retrieve(bytes32 subject) public view returns (Response, string, bytes32) {\n        bytes32 hashed = getHash(subject);\n        Registration memory registration = registrations[hashed];\n\n        if (registration.subject == \"\") {\n            return (Response.Error, \"\", hashed);\n        }\n\n        return (Response.Ok, registration.owner, registration.subject);\n    }\n\n    function getHash(bytes32 subject) public pure returns (bytes32) {\n        // Can't be easily changed\n        return keccak256(subject);\n    }\n\n    modifier notRegistered(bytes32 subject) {\n        bytes32 hashed = getHash(subject);\n        Registration memory registration = registrations[hashed];\n        require(registration.subject == 0);\n        _;\n    }\n\n    modifier enoughFee {\n        require(msg.value >= this.getFee());\n        _;\n    }\n}\n",
  "sourcePath": "/Users/gyng/w/d/registry-contract/contracts/Registry.sol",
  "compiler": {
    "name": "solc",
    "version": "0.4.19+commit.c4cbbb05.Emscripten.clang"
  },
  "schemaVersion": "1.0.1",
  "updatedAt": "2018-03-01T07:01:28.501Z"
}